{
  "_format": "hh-sol-artifact-1",
  "contractName": "StepCompetition",
  "sourceName": "contracts/StepCompetition.sol",
  "abi": [
    {
      "anonymous": false,
      "inputs": [
        {
          "indexed": false,
          "internalType": "address",
          "name": "user",
          "type": "address"
        }
      ],
      "name": "ParticipantRegistered",
      "type": "event"
    },
    {
      "anonymous": false,
      "inputs": [
        {
          "indexed": false,
          "internalType": "address",
          "name": "user",
          "type": "address"
        },
        {
          "indexed": false,
          "internalType": "uint256",
          "name": "steps",
          "type": "uint256"
        }
      ],
      "name": "StepsRegistered",
      "type": "event"
    },
    {
      "inputs": [],
      "name": "getRanking",
      "outputs": [
        {
          "internalType": "address[]",
          "name": "",
          "type": "address[]"
        },
        {
          "internalType": "uint256[]",
          "name": "",
          "type": "uint256[]"
        }
      ],
      "stateMutability": "view",
      "type": "function"
    },
    {
      "inputs": [
        {
          "internalType": "uint256",
          "name": "",
          "type": "uint256"
        }
      ],
      "name": "participantAddresses",
      "outputs": [
        {
          "internalType": "address",
          "name": "",
          "type": "address"
        }
      ],
      "stateMutability": "view",
      "type": "function"
    },
    {
      "inputs": [
        {
          "internalType": "address",
          "name": "",
          "type": "address"
        }
      ],
      "name": "participants",
      "outputs": [
        {
          "internalType": "uint256",
          "name": "steps",
          "type": "uint256"
        },
        {
          "internalType": "bool",
          "name": "registered",
          "type": "bool"
        }
      ],
      "stateMutability": "view",
      "type": "function"
    },
    {
      "inputs": [],
      "name": "register",
      "outputs": [],
      "stateMutability": "nonpayable",
      "type": "function"
    },
    {
      "inputs": [
        {
          "internalType": "uint256",
          "name": "steps",
          "type": "uint256"
        }
      ],
      "name": "registerSteps",
      "outputs": [],
      "stateMutability": "nonpayable",
      "type": "function"
    }
  ],
  "bytecode": "0x608060405234801561001057600080fd5b50611134806100206000396000f3fe608060405234801561001057600080fd5b50600436106100575760003560e01c806309e69ede1461005c5780631398bbf71461008d5780631aa3a008146100ac57806354ffbddb146100b657806385f23054146100e6575b600080fd5b61007660048036038101906100719190610bfe565b610102565b604051610084929190610e88565b60405180910390f35b610095610133565b6040516100a3929190610e11565b60405180910390f35b6100b46108c4565b005b6100d060048036038101906100cb9190610c27565b610a73565b6040516100dd9190610dcd565b60405180910390f35b61010060048036038101906100fb9190610c27565b610ab2565b005b60006020528060005260406000206000915090508060000154908060010160009054906101000a900460ff16905082565b6060806000600180549050141561022d57600067ffffffffffffffff811115610185577f4e487b7100000000000000000000000000000000000000000000000000000000600052604160045260246000fd5b6040519080825280602002602001820160405280156101b35781602001602082028036833780820191505090505b50600067ffffffffffffffff8111156101f5577f4e487b7100000000000000000000000000000000000000000000000000000000600052604160045260246000fd5b6040519080825280602002602001820160405280156102235781602001602082028036833780820191505090505b50915091506108c0565b600060018054905067ffffffffffffffff811115610274577f4e487b7100000000000000000000000000000000000000000000000000000000600052604160045260246000fd5b6040519080825280602002602001820160405280156102a25781602001602082028036833780820191505090505b509050600060018054905067ffffffffffffffff8111156102ec577f4e487b7100000000000000000000000000000000000000000000000000000000600052604160045260246000fd5b60405190808252806020026020018201604052801561031a5781602001602082028036833780820191505090505b50905060005b6001805490508110156105035760018181548110610367577f4e487b7100000000000000000000000000000000000000000000000000000000600052603260045260246000fd5b9060005260206000200160009054906101000a900473ffffffffffffffffffffffffffffffffffffffff168382815181106103cb577f4e487b7100000000000000000000000000000000000000000000000000000000600052603260045260246000fd5b602002602001019073ffffffffffffffffffffffffffffffffffffffff16908173ffffffffffffffffffffffffffffffffffffffff168152505060008060018381548110610442577f4e487b7100000000000000000000000000000000000000000000000000000000600052603260045260246000fd5b9060005260206000200160009054906101000a900473ffffffffffffffffffffffffffffffffffffffff1673ffffffffffffffffffffffffffffffffffffffff1673ffffffffffffffffffffffffffffffffffffffff168152602001908152602001600020600001548282815181106104e4577f4e487b7100000000000000000000000000000000000000000000000000000000600052603260045260246000fd5b60200260200101818152505080806104fb90611006565b915050610320565b506001825111156108b75760005b6001835161051f9190610f8a565b8110156108b55760005b60018285516105389190610f8a565b6105429190610f8a565b8110156108a157826001826105579190610f34565b8151811061058e577f4e487b7100000000000000000000000000000000000000000000000000000000600052603260045260246000fd5b60200260200101518382815181106105cf577f4e487b7100000000000000000000000000000000000000000000000000000000600052603260045260246000fd5b6020026020010151101561088e576000838281518110610618577f4e487b7100000000000000000000000000000000000000000000000000000000600052603260045260246000fd5b60200260200101519050836001836106309190610f34565b81518110610667577f4e487b7100000000000000000000000000000000000000000000000000000000600052603260045260246000fd5b60200260200101518483815181106106a8577f4e487b7100000000000000000000000000000000000000000000000000000000600052603260045260246000fd5b60200260200101818152505080846001846106c39190610f34565b815181106106fa577f4e487b7100000000000000000000000000000000000000000000000000000000600052603260045260246000fd5b6020026020010181815250506000858381518110610741577f4e487b7100000000000000000000000000000000000000000000000000000000600052603260045260246000fd5b60200260200101519050856001846107599190610f34565b81518110610790577f4e487b7100000000000000000000000000000000000000000000000000000000600052603260045260246000fd5b60200260200101518684815181106107d1577f4e487b7100000000000000000000000000000000000000000000000000000000600052603260045260246000fd5b602002602001019073ffffffffffffffffffffffffffffffffffffffff16908173ffffffffffffffffffffffffffffffffffffffff1681525050808660018561081a9190610f34565b81518110610851577f4e487b7100000000000000000000000000000000000000000000000000000000600052603260045260246000fd5b602002602001019073ffffffffffffffffffffffffffffffffffffffff16908173ffffffffffffffffffffffffffffffffffffffff168152505050505b808061089990611006565b915050610529565b5080806108ad90611006565b915050610511565b505b81819350935050505b9091565b6000803373ffffffffffffffffffffffffffffffffffffffff1673ffffffffffffffffffffffffffffffffffffffff16815260200190815260200160002060010160009054906101000a900460ff1615610953576040517f08c379a000000000000000000000000000000000000000000000000000000000815260040161094a90610e68565b60405180910390fd5b604051806040016040528060008152602001600115158152506000803373ffffffffffffffffffffffffffffffffffffffff1673ffffffffffffffffffffffffffffffffffffffff1681526020019081526020016000206000820151816000015560208201518160010160006101000a81548160ff0219169083151502179055509050506001339080600181540180825580915050600190039060005260206000200160009091909190916101000a81548173ffffffffffffffffffffffffffffffffffffffff021916908373ffffffffffffffffffffffffffffffffffffffff1602179055507fe11711cd714e06fbbbea301a8e90822f2f2ea4808e37e3adf06038f33c53ff2733604051610a699190610dcd565b60405180910390a1565b60018181548110610a8357600080fd5b906000526020600020016000915054906101000a900473ffffffffffffffffffffffffffffffffffffffff1681565b6000803373ffffffffffffffffffffffffffffffffffffffff1673ffffffffffffffffffffffffffffffffffffffff16815260200190815260200160002060010160009054906101000a900460ff16610b40576040517f08c379a0000000000000000000000000000000000000000000000000000000008152600401610b3790610e48565b60405180910390fd5b806000803373ffffffffffffffffffffffffffffffffffffffff1673ffffffffffffffffffffffffffffffffffffffff1681526020019081526020016000206000016000828254610b919190610f34565b925050819055507f94dfb0cf7d03d463011e987b2ae9f0370aed49752200309d1ba36c8bffb6cd4d3382604051610bc9929190610de8565b60405180910390a150565b600081359050610be3816110d0565b92915050565b600081359050610bf8816110e7565b92915050565b600060208284031215610c1057600080fd5b6000610c1e84828501610bd4565b91505092915050565b600060208284031215610c3957600080fd5b6000610c4784828501610be9565b91505092915050565b6000610c5c8383610c80565b60208301905092915050565b6000610c748383610daf565b60208301905092915050565b610c8981610fbe565b82525050565b610c9881610fbe565b82525050565b6000610ca982610ed1565b610cb38185610f01565b9350610cbe83610eb1565b8060005b83811015610cef578151610cd68882610c50565b9750610ce183610ee7565b925050600181019050610cc2565b5085935050505092915050565b6000610d0782610edc565b610d118185610f12565b9350610d1c83610ec1565b8060005b83811015610d4d578151610d348882610c68565b9750610d3f83610ef4565b925050600181019050610d20565b5085935050505092915050565b610d6381610fd0565b82525050565b6000610d76600e83610f23565b9150610d818261107e565b602082019050919050565b6000610d99601283610f23565b9150610da4826110a7565b602082019050919050565b610db881610ffc565b82525050565b610dc781610ffc565b82525050565b6000602082019050610de26000830184610c8f565b92915050565b6000604082019050610dfd6000830185610c8f565b610e0a6020830184610dbe565b9392505050565b60006040820190508181036000830152610e2b8185610c9e565b90508181036020830152610e3f8184610cfc565b90509392505050565b60006020820190508181036000830152610e6181610d69565b9050919050565b60006020820190508181036000830152610e8181610d8c565b9050919050565b6000604082019050610e9d6000830185610dbe565b610eaa6020830184610d5a565b9392505050565b6000819050602082019050919050565b6000819050602082019050919050565b600081519050919050565b600081519050919050565b6000602082019050919050565b6000602082019050919050565b600082825260208201905092915050565b600082825260208201905092915050565b600082825260208201905092915050565b6000610f3f82610ffc565b9150610f4a83610ffc565b9250827fffffffffffffffffffffffffffffffffffffffffffffffffffffffffffffffff03821115610f7f57610f7e61104f565b5b828201905092915050565b6000610f9582610ffc565b9150610fa083610ffc565b925082821015610fb357610fb261104f565b5b828203905092915050565b6000610fc982610fdc565b9050919050565b60008115159050919050565b600073ffffffffffffffffffffffffffffffffffffffff82169050919050565b6000819050919050565b600061101182610ffc565b91507fffffffffffffffffffffffffffffffffffffffffffffffffffffffffffffffff8214156110445761104361104f565b5b600182019050919050565b7f4e487b7100000000000000000000000000000000000000000000000000000000600052601160045260246000fd5b7f4e6f742072656769737465726564000000000000000000000000000000000000600082015250565b7f416c726561647920726567697374657265640000000000000000000000000000600082015250565b6110d981610fbe565b81146110e457600080fd5b50565b6110f081610ffc565b81146110fb57600080fd5b5056fea26469706673582212203778f96e334c356cc702fdb71f311bc58a6d08f95ca4f3fabdf8ab280f243cad64736f6c63430008040033",
  "linkReferences": {},
  "deployedLinkReferences": {}
}