{
  "_format": "hh-sol-artifact-1",
  "contractName": "CompetitionFactory",
  "sourceName": "contracts/CompetitionFactory.sol",
  "abi": [
    {
      "anonymous": false,
      "inputs": [
        {
          "indexed": false,
          "internalType": "address",
          "name": "competitionAddress",
          "type": "address"
        },
        {
          "indexed": false,
          "internalType": "string",
          "name": "name",
          "type": "string"
        }
      ],
      "name": "CompetitionCreated",
      "type": "event"
    },
    {
      "inputs": [
        {
          "internalType": "uint256",
          "name": "",
          "type": "uint256"
        }
      ],
      "name": "competitions",
      "outputs": [
        {
          "internalType": "address",
          "name": "competitionAddress",
          "type": "address"
        },
        {
          "internalType": "string",
          "name": "name",
          "type": "string"
        }
      ],
      "stateMutability": "view",
      "type": "function"
    },
    {
      "inputs": [
        {
          "internalType": "string",
          "name": "_name",
          "type": "string"
        }
      ],
      "name": "createCompetition",
      "outputs": [],
      "stateMutability": "nonpayable",
      "type": "function"
    },
    {
      "inputs": [],
      "name": "getCompetitionAddresses",
      "outputs": [
        {
          "internalType": "address[]",
          "name": "",
          "type": "address[]"
        }
      ],
      "stateMutability": "view",
      "type": "function"
    },
    {
      "inputs": [],
      "name": "getCompetitions",
      "outputs": [
        {
          "components": [
            {
              "internalType": "address",
              "name": "competitionAddress",
              "type": "address"
            },
            {
              "internalType": "string",
              "name": "name",
              "type": "string"
            }
          ],
          "internalType": "struct CompetitionFactory.CompetitionInfo[]",
          "name": "",
          "type": "tuple[]"
        }
      ],
      "stateMutability": "view",
      "type": "function"
    }
  ],
  "bytecode": "0x608060405234801561001057600080fd5b50612dfc806100206000396000f3fe60806040523480156200001157600080fd5b5060043610620000525760003560e01c80639f6828d914620000575780639f6c0ce3146200008e578063c5fc4f3314620000b0578063cc1c02ff14620000d0575b600080fd5b6200007560048036038101906200006f9190620007c5565b620000f2565b60405162000085929190620009f1565b60405180910390f35b62000098620001d7565b604051620000a7919062000a49565b60405180910390f35b620000ce6004803603810190620000c8919062000780565b62000328565b005b620000da620004ae565b604051620000e9919062000a25565b60405180910390f35b600081815481106200010357600080fd5b90600052602060002090600202016000915090508060000160009054906101000a900473ffffffffffffffffffffffffffffffffffffffff16908060010180546200014e9062000c12565b80601f01602080910402602001604051908101604052809291908181526020018280546200017c9062000c12565b8015620001cd5780601f10620001a157610100808354040283529160200191620001cd565b820191906000526020600020905b815481529060010190602001808311620001af57829003601f168201915b5050505050905082565b60606000805480602002602001604051908101604052809291908181526020016000905b828210156200031f57838290600052602060002090600202016040518060400160405290816000820160009054906101000a900473ffffffffffffffffffffffffffffffffffffffff1673ffffffffffffffffffffffffffffffffffffffff1673ffffffffffffffffffffffffffffffffffffffff168152602001600182018054620002879062000c12565b80601f0160208091040260200160405190810160405280929190818152602001828054620002b59062000c12565b8015620003065780601f10620002da5761010080835404028352916020019162000306565b820191906000526020600020905b815481529060010190602001808311620002e857829003601f168201915b50505050508152505081526020019060010190620001fb565b50505050905090565b6000808251116200036f576040518060400160405280601381526020017f556e6e616d656420436f6d7065746974696f6e0000000000000000000000000081525062000371565b815b9050600081604051620003849062000639565b62000390919062000a6d565b604051809103906000f080158015620003ad573d6000803e3d6000fd5b509050600060405180604001604052808373ffffffffffffffffffffffffffffffffffffffff16815260200184815250908060018154018082558091505060019003906000526020600020906002020160009091909190915060008201518160000160006101000a81548173ffffffffffffffffffffffffffffffffffffffff021916908373ffffffffffffffffffffffffffffffffffffffff16021790555060208201518160010190805190602001906200046b92919062000647565b5050507f820bbe49c2d719377e33462e8b4672d8a5a80cdbf59991dfa072787fe190ed438183604051620004a1929190620009f1565b60405180910390a1505050565b60606000808054905067ffffffffffffffff811115620004f7577f4e487b7100000000000000000000000000000000000000000000000000000000600052604160045260246000fd5b604051908082528060200260200182016040528015620005265781602001602082028036833780820191505090505b50905060005b60008054905081101562000631576000818154811062000575577f4e487b7100000000000000000000000000000000000000000000000000000000600052603260045260246000fd5b906000526020600020906002020160000160009054906101000a900473ffffffffffffffffffffffffffffffffffffffff16828281518110620005e1577f4e487b7100000000000000000000000000000000000000000000000000000000600052603260045260246000fd5b602002602001019073ffffffffffffffffffffffffffffffffffffffff16908173ffffffffffffffffffffffffffffffffffffffff16815250508080620006289062000c7e565b9150506200052c565b508091505090565b6120428062000d8583390190565b828054620006559062000c12565b90600052602060002090601f016020900481019282620006795760008555620006c5565b82601f106200069457805160ff1916838001178555620006c5565b82800160010185558215620006c5579182015b82811115620006c4578251825591602001919060010190620006a7565b5b509050620006d49190620006d8565b5090565b5b80821115620006f3576000816000905550600101620006d9565b5090565b60006200070e620007088462000aba565b62000a91565b9050828152602081018484840111156200072757600080fd5b6200073484828562000bcd565b509392505050565b600082601f8301126200074e57600080fd5b813562000760848260208601620006f7565b91505092915050565b6000813590506200077a8162000d6a565b92915050565b6000602082840312156200079357600080fd5b600082013567ffffffffffffffff811115620007ae57600080fd5b620007bc848285016200073c565b91505092915050565b600060208284031215620007d857600080fd5b6000620007e88482850162000769565b91505092915050565b6000620007ff838362000821565b60208301905092915050565b6000620008198383620009b0565b905092915050565b6200082c8162000b8f565b82525050565b6200083d8162000b8f565b82525050565b6000620008508262000b10565b6200085c818562000b4b565b9350620008698362000af0565b8060005b83811015620008a0578151620008848882620007f1565b9750620008918362000b31565b9250506001810190506200086d565b5085935050505092915050565b6000620008ba8262000b1b565b620008c6818562000b5c565b935083602082028501620008da8562000b00565b8060005b858110156200091c5784840389528151620008fa85826200080b565b9450620009078362000b3e565b925060208a01995050600181019050620008de565b50829750879550505050505092915050565b60006200093b8262000b26565b62000947818562000b6d565b93506200095981856020860162000bdc565b620009648162000d59565b840191505092915050565b60006200097c8262000b26565b62000988818562000b7e565b93506200099a81856020860162000bdc565b620009a58162000d59565b840191505092915050565b6000604083016000830151620009ca600086018262000821565b5060208301518482036020860152620009e482826200092e565b9150508091505092915050565b600060408201905062000a08600083018562000832565b818103602083015262000a1c81846200096f565b90509392505050565b6000602082019050818103600083015262000a41818462000843565b905092915050565b6000602082019050818103600083015262000a658184620008ad565b905092915050565b6000602082019050818103600083015262000a8981846200096f565b905092915050565b600062000a9d62000ab0565b905062000aab828262000c48565b919050565b6000604051905090565b600067ffffffffffffffff82111562000ad85762000ad762000d2a565b5b62000ae38262000d59565b9050602081019050919050565b6000819050602082019050919050565b6000819050602082019050919050565b600081519050919050565b600081519050919050565b600081519050919050565b6000602082019050919050565b6000602082019050919050565b600082825260208201905092915050565b600082825260208201905092915050565b600082825260208201905092915050565b600082825260208201905092915050565b600062000b9c8262000ba3565b9050919050565b600073ffffffffffffffffffffffffffffffffffffffff82169050919050565b6000819050919050565b82818337600083830152505050565b60005b8381101562000bfc57808201518184015260208101905062000bdf565b8381111562000c0c576000848401525b50505050565b6000600282049050600182168062000c2b57607f821691505b6020821081141562000c425762000c4162000cfb565b5b50919050565b62000c538262000d59565b810181811067ffffffffffffffff8211171562000c755762000c7462000d2a565b5b80604052505050565b600062000c8b8262000bc3565b91507fffffffffffffffffffffffffffffffffffffffffffffffffffffffffffffffff82141562000cc15762000cc062000ccc565b5b600182019050919050565b7f4e487b7100000000000000000000000000000000000000000000000000000000600052601160045260246000fd5b7f4e487b7100000000000000000000000000000000000000000000000000000000600052602260045260246000fd5b7f4e487b7100000000000000000000000000000000000000000000000000000000600052604160045260246000fd5b6000601f19601f8301169050919050565b62000d758162000bc3565b811462000d8157600080fd5b5056fe60806040523480156200001157600080fd5b5060405162002042380380620020428339818101604052810190620000379190620001c0565b60008151116200007d576040518060400160405280601381526020017f556e6e616d656420436f6d7065746974696f6e000000000000000000000000008152506200007f565b805b60009080519060200190620000969291906200009e565b505062000375565b828054620000ac906200029a565b90600052602060002090601f016020900481019282620000d057600085556200011c565b82601f10620000eb57805160ff19168380011785556200011c565b828001600101855582156200011c579182015b828111156200011b578251825591602001919060010190620000fe565b5b5090506200012b91906200012f565b5090565b5b808211156200014a57600081600090555060010162000130565b5090565b6000620001656200015f846200022e565b62000205565b9050828152602081018484840111156200017e57600080fd5b6200018b84828562000264565b509392505050565b600082601f830112620001a557600080fd5b8151620001b78482602086016200014e565b91505092915050565b600060208284031215620001d357600080fd5b600082015167ffffffffffffffff811115620001ee57600080fd5b620001fc8482850162000193565b91505092915050565b60006200021162000224565b90506200021f8282620002d0565b919050565b6000604051905090565b600067ffffffffffffffff8211156200024c576200024b62000335565b5b620002578262000364565b9050602081019050919050565b60005b838110156200028457808201518184015260208101905062000267565b8381111562000294576000848401525b50505050565b60006002820490506001821680620002b357607f821691505b60208210811415620002ca57620002c962000306565b5b50919050565b620002db8262000364565b810181811067ffffffffffffffff82111715620002fd57620002fc62000335565b5b80604052505050565b7f4e487b7100000000000000000000000000000000000000000000000000000000600052602260045260246000fd5b7f4e487b7100000000000000000000000000000000000000000000000000000000600052604160045260246000fd5b6000601f19601f8301169050919050565b611cbd80620003856000396000f3fe608060405234801561001057600080fd5b506004361061007d5760003560e01c806372fc9e551161005b57806372fc9e551461010457806385f2305414610122578063ee8b7cd91461013e578063f2c298be1461015a5761007d565b806309e69ede146100825780631398bbf7146100b457806354ffbddb146100d4575b600080fd5b61009c60048036038101906100979190611410565b610176565b6040516100ab9392919061183d565b60405180910390f35b6100bc610235565b6040516100cb9392919061178f565b60405180910390f35b6100ee60048036038101906100e9919061147a565b610d5d565b6040516100fb919061171b565b60405180910390f35b61010c610d9c565b60405161011991906117db565b60405180910390f35b61013c6004803603810190610137919061147a565b610e2a565b005b61015860048036038101906101539190611439565b610f4e565b005b610174600480360381019061016f9190611439565b6110ba565b005b60016020528060005260406000206000915090508060000154908060010160009054906101000a900460ff16908060020180546101b290611abd565b80601f01602080910402602001604051908101604052809291908181526020018280546101de90611abd565b801561022b5780601f106102005761010080835404028352916020019161022b565b820191906000526020600020905b81548152906001019060200180831161020e57829003601f168201915b5050505050905083565b6060806060600060028054905014156103a857600067ffffffffffffffff811115610289577f4e487b7100000000000000000000000000000000000000000000000000000000600052604160045260246000fd5b6040519080825280602002602001820160405280156102b75781602001602082028036833780820191505090505b50600067ffffffffffffffff8111156102f9577f4e487b7100000000000000000000000000000000000000000000000000000000600052604160045260246000fd5b6040519080825280602002602001820160405280156103275781602001602082028036833780820191505090505b50600067ffffffffffffffff811115610369577f4e487b7100000000000000000000000000000000000000000000000000000000600052604160045260246000fd5b60405190808252806020026020018201604052801561039c57816020015b60608152602001906001900390816103875790505b50925092509250610d58565b600060028054905067ffffffffffffffff8111156103ef577f4e487b7100000000000000000000000000000000000000000000000000000000600052604160045260246000fd5b60405190808252806020026020018201604052801561041d5781602001602082028036833780820191505090505b509050600060028054905067ffffffffffffffff811115610467577f4e487b7100000000000000000000000000000000000000000000000000000000600052604160045260246000fd5b6040519080825280602002602001820160405280156104955781602001602082028036833780820191505090505b509050600060028054905067ffffffffffffffff8111156104df577f4e487b7100000000000000000000000000000000000000000000000000000000600052604160045260246000fd5b60405190808252806020026020018201604052801561051257816020015b60608152602001906001900390816104fd5790505b50905060005b60028054905081101561086f576002818154811061055f577f4e487b7100000000000000000000000000000000000000000000000000000000600052603260045260246000fd5b9060005260206000200160009054906101000a900473ffffffffffffffffffffffffffffffffffffffff168482815181106105c3577f4e487b7100000000000000000000000000000000000000000000000000000000600052603260045260246000fd5b602002602001019073ffffffffffffffffffffffffffffffffffffffff16908173ffffffffffffffffffffffffffffffffffffffff1681525050600160006002838154811061063b577f4e487b7100000000000000000000000000000000000000000000000000000000600052603260045260246000fd5b9060005260206000200160009054906101000a900473ffffffffffffffffffffffffffffffffffffffff1673ffffffffffffffffffffffffffffffffffffffff1673ffffffffffffffffffffffffffffffffffffffff168152602001908152602001600020600001548382815181106106dd577f4e487b7100000000000000000000000000000000000000000000000000000000600052603260045260246000fd5b6020026020010181815250506001600060028381548110610727577f4e487b7100000000000000000000000000000000000000000000000000000000600052603260045260246000fd5b9060005260206000200160009054906101000a900473ffffffffffffffffffffffffffffffffffffffff1673ffffffffffffffffffffffffffffffffffffffff1673ffffffffffffffffffffffffffffffffffffffff168152602001908152602001600020600201805461079a90611abd565b80601f01602080910402602001604051908101604052809291908181526020018280546107c690611abd565b80156108135780601f106107e857610100808354040283529160200191610813565b820191906000526020600020905b8154815290600101906020018083116107f657829003601f168201915b5050505050828281518110610851577f4e487b7100000000000000000000000000000000000000000000000000000000600052603260045260246000fd5b6020026020010181905250808061086790611b20565b915050610518565b50600183511115610d4b5760005b6001845161088b91906119ff565b811015610d495760005b60018286516108a491906119ff565b6108ae91906119ff565b811015610d3557836001826108c391906119a9565b815181106108fa577f4e487b7100000000000000000000000000000000000000000000000000000000600052603260045260246000fd5b602002602001015184828151811061093b577f4e487b7100000000000000000000000000000000000000000000000000000000600052603260045260246000fd5b60200260200101511015610d22576000848281518110610984577f4e487b7100000000000000000000000000000000000000000000000000000000600052603260045260246000fd5b602002602001015190508460018361099c91906119a9565b815181106109d3577f4e487b7100000000000000000000000000000000000000000000000000000000600052603260045260246000fd5b6020026020010151858381518110610a14577f4e487b7100000000000000000000000000000000000000000000000000000000600052603260045260246000fd5b6020026020010181815250508085600184610a2f91906119a9565b81518110610a66577f4e487b7100000000000000000000000000000000000000000000000000000000600052603260045260246000fd5b6020026020010181815250506000868381518110610aad577f4e487b7100000000000000000000000000000000000000000000000000000000600052603260045260246000fd5b6020026020010151905086600184610ac591906119a9565b81518110610afc577f4e487b7100000000000000000000000000000000000000000000000000000000600052603260045260246000fd5b6020026020010151878481518110610b3d577f4e487b7100000000000000000000000000000000000000000000000000000000600052603260045260246000fd5b602002602001019073ffffffffffffffffffffffffffffffffffffffff16908173ffffffffffffffffffffffffffffffffffffffff16815250508087600185610b8691906119a9565b81518110610bbd577f4e487b7100000000000000000000000000000000000000000000000000000000600052603260045260246000fd5b602002602001019073ffffffffffffffffffffffffffffffffffffffff16908173ffffffffffffffffffffffffffffffffffffffff16815250506000858481518110610c32577f4e487b7100000000000000000000000000000000000000000000000000000000600052603260045260246000fd5b6020026020010151905085600185610c4a91906119a9565b81518110610c81577f4e487b7100000000000000000000000000000000000000000000000000000000600052603260045260246000fd5b6020026020010151868581518110610cc2577f4e487b7100000000000000000000000000000000000000000000000000000000600052603260045260246000fd5b60200260200101819052508086600186610cdc91906119a9565b81518110610d13577f4e487b7100000000000000000000000000000000000000000000000000000000600052603260045260246000fd5b60200260200101819052505050505b8080610d2d90611b20565b915050610895565b508080610d4190611b20565b91505061087d565b505b8282829550955095505050505b909192565b60028181548110610d6d57600080fd5b906000526020600020016000915054906101000a900473ffffffffffffffffffffffffffffffffffffffff1681565b60008054610da990611abd565b80601f0160208091040260200160405190810160405280929190818152602001828054610dd590611abd565b8015610e225780601f10610df757610100808354040283529160200191610e22565b820191906000526020600020905b815481529060010190602001808311610e0557829003601f168201915b505050505081565b600160003373ffffffffffffffffffffffffffffffffffffffff1673ffffffffffffffffffffffffffffffffffffffff16815260200190815260200160002060010160009054906101000a900460ff16610eb9576040517f08c379a0000000000000000000000000000000000000000000000000000000008152600401610eb0906117fd565b60405180910390fd5b80600160003373ffffffffffffffffffffffffffffffffffffffff1673ffffffffffffffffffffffffffffffffffffffff1681526020019081526020016000206000016000828254610f0b91906119a9565b925050819055507f94dfb0cf7d03d463011e987b2ae9f0370aed49752200309d1ba36c8bffb6cd4d3382604051610f43929190611766565b60405180910390a150565b600160003373ffffffffffffffffffffffffffffffffffffffff1673ffffffffffffffffffffffffffffffffffffffff16815260200190815260200160002060010160009054906101000a900460ff16610fdd576040517f08c379a0000000000000000000000000000000000000000000000000000000008152600401610fd4906117fd565b60405180910390fd5b600080825111611022576040518060400160405280601181526020017f416e6f6e796d6f75732053746570706572000000000000000000000000000000815250611024565b815b905080600160003373ffffffffffffffffffffffffffffffffffffffff1673ffffffffffffffffffffffffffffffffffffffff168152602001908152602001600020600201908051906020019061107c9291906112db565b507fbbdc5877c2ac49276dc856251c0cff0d4a1bb5f576aaaac82835ec9fc8bd0d8633826040516110ae929190611736565b60405180910390a15050565b600160003373ffffffffffffffffffffffffffffffffffffffff1673ffffffffffffffffffffffffffffffffffffffff16815260200190815260200160002060010160009054906101000a900460ff161561114a576040517f08c379a00000000000000000000000000000000000000000000000000000000081526004016111419061181d565b60405180910390fd5b60008082511161118f576040518060400160405280601181526020017f416e6f6e796d6f75732053746570706572000000000000000000000000000000815250611191565b815b905060405180606001604052806000815260200160011515815260200182815250600160003373ffffffffffffffffffffffffffffffffffffffff1673ffffffffffffffffffffffffffffffffffffffff1681526020019081526020016000206000820151816000015560208201518160010160006101000a81548160ff02191690831515021790555060408201518160020190805190602001906112379291906112db565b509050506002339080600181540180825580915050600190039060005260206000200160009091909190916101000a81548173ffffffffffffffffffffffffffffffffffffffff021916908373ffffffffffffffffffffffffffffffffffffffff1602179055507fbdb8c03a851fc898fb30c8b14ee28c26374ac77692867f54fbf009402f516e6133826040516112cf929190611736565b60405180910390a15050565b8280546112e790611abd565b90600052602060002090601f0160209004810192826113095760008555611350565b82601f1061132257805160ff1916838001178555611350565b82800160010185558215611350579182015b8281111561134f578251825591602001919060010190611334565b5b50905061135d9190611361565b5090565b5b8082111561137a576000816000905550600101611362565b5090565b600061139161138c846118a0565b61187b565b9050828152602081018484840111156113a957600080fd5b6113b4848285611a7b565b509392505050565b6000813590506113cb81611c59565b92915050565b600082601f8301126113e257600080fd5b81356113f284826020860161137e565b91505092915050565b60008135905061140a81611c70565b92915050565b60006020828403121561142257600080fd5b6000611430848285016113bc565b91505092915050565b60006020828403121561144b57600080fd5b600082013567ffffffffffffffff81111561146557600080fd5b611471848285016113d1565b91505092915050565b60006020828403121561148c57600080fd5b600061149a848285016113fb565b91505092915050565b60006114af83836114e7565b60208301905092915050565b60006114c78383611645565b905092915050565b60006114db83836116fd565b60208301905092915050565b6114f081611a33565b82525050565b6114ff81611a33565b82525050565b600061151082611901565b61151a8185611954565b9350611525836118d1565b8060005b8381101561155657815161153d88826114a3565b97506115488361192d565b925050600181019050611529565b5085935050505092915050565b600061156e8261190c565b6115788185611965565b93508360208202850161158a856118e1565b8060005b858110156115c657848403895281516115a785826114bb565b94506115b28361193a565b925060208a0199505060018101905061158e565b50829750879550505050505092915050565b60006115e382611917565b6115ed8185611976565b93506115f8836118f1565b8060005b8381101561162957815161161088826114cf565b975061161b83611947565b9250506001810190506115fc565b5085935050505092915050565b61163f81611a45565b82525050565b600061165082611922565b61165a8185611987565b935061166a818560208601611a8a565b61167381611bf6565b840191505092915050565b600061168982611922565b6116938185611998565b93506116a3818560208601611a8a565b6116ac81611bf6565b840191505092915050565b60006116c4600e83611998565b91506116cf82611c07565b602082019050919050565b60006116e7601283611998565b91506116f282611c30565b602082019050919050565b61170681611a71565b82525050565b61171581611a71565b82525050565b600060208201905061173060008301846114f6565b92915050565b600060408201905061174b60008301856114f6565b818103602083015261175d818461167e565b90509392505050565b600060408201905061177b60008301856114f6565b611788602083018461170c565b9392505050565b600060608201905081810360008301526117a98186611505565b905081810360208301526117bd81856115d8565b905081810360408301526117d18184611563565b9050949350505050565b600060208201905081810360008301526117f5818461167e565b905092915050565b60006020820190508181036000830152611816816116b7565b9050919050565b60006020820190508181036000830152611836816116da565b9050919050565b6000606082019050611852600083018661170c565b61185f6020830185611636565b8181036040830152611871818461167e565b9050949350505050565b6000611885611896565b90506118918282611aef565b919050565b6000604051905090565b600067ffffffffffffffff8211156118bb576118ba611bc7565b5b6118c482611bf6565b9050602081019050919050565b6000819050602082019050919050565b6000819050602082019050919050565b6000819050602082019050919050565b600081519050919050565b600081519050919050565b600081519050919050565b600081519050919050565b6000602082019050919050565b6000602082019050919050565b6000602082019050919050565b600082825260208201905092915050565b600082825260208201905092915050565b600082825260208201905092915050565b600082825260208201905092915050565b600082825260208201905092915050565b60006119b482611a71565b91506119bf83611a71565b9250827fffffffffffffffffffffffffffffffffffffffffffffffffffffffffffffffff038211156119f4576119f3611b69565b5b828201905092915050565b6000611a0a82611a71565b9150611a1583611a71565b925082821015611a2857611a27611b69565b5b828203905092915050565b6000611a3e82611a51565b9050919050565b60008115159050919050565b600073ffffffffffffffffffffffffffffffffffffffff82169050919050565b6000819050919050565b82818337600083830152505050565b60005b83811015611aa8578082015181840152602081019050611a8d565b83811115611ab7576000848401525b50505050565b60006002820490506001821680611ad557607f821691505b60208210811415611ae957611ae8611b98565b5b50919050565b611af882611bf6565b810181811067ffffffffffffffff82111715611b1757611b16611bc7565b5b80604052505050565b6000611b2b82611a71565b91507fffffffffffffffffffffffffffffffffffffffffffffffffffffffffffffffff821415611b5e57611b5d611b69565b5b600182019050919050565b7f4e487b7100000000000000000000000000000000000000000000000000000000600052601160045260246000fd5b7f4e487b7100000000000000000000000000000000000000000000000000000000600052602260045260246000fd5b7f4e487b7100000000000000000000000000000000000000000000000000000000600052604160045260246000fd5b6000601f19601f8301169050919050565b7f4e6f742072656769737465726564000000000000000000000000000000000000600082015250565b7f416c726561647920726567697374657265640000000000000000000000000000600082015250565b611c6281611a33565b8114611c6d57600080fd5b50565b611c7981611a71565b8114611c8457600080fd5b5056fea264697066735822122038da65329842bc8dc80dfbbdebbf419adb79b278d4e6fa749b2792060f66cd5564736f6c63430008040033a26469706673582212207a614889366d9d1313e7af9b5fb4ab5ca2f7d10595ee3b4ad0a297b91dac8c1e64736f6c63430008040033",
  "linkReferences": {},
  "deployedLinkReferences": {}
}